:020000040800F2
:10000000F8260020AD0100082124000887210008FF
:100010001D2400085F030008654A00080000000076
:10002000000000000000000000000000E3270008BE
:100030003104000800000000F7260008E52700084A
:10004000C7010008C7010008C7010008C701000870
:10005000C7010008C7010008C7010008C701000860
:10006000C7010008C7010008C7010008C701000850
:10007000C7010008C7010008C7010008C701000840
:10008000C7010008C7010008C70100080000000000
:10009000000000000000000000000000C701000890
:1000A000C7010008C7010008C7010008C701000810
:1000B000C7010008C7010008C7010008C701000800
:1000C000C7010008C7010008C7010008C7010008F0
:1000D000C7010008C7010008C701000800000000B0
:1000E000C7010008C7010008C701000800000000A0
:1000F000000000000000000000000000C701000830
:1001000000000000C7010008C7010008C70100087F
:1001100000000000000000000000000000000000DF
:10012000C7010008C7010008C7010008C70100088F
:10013000C7010008000000000000000000000000EF
:10014000000000000000000000000000252400085E
:10015000C7010008C7010008C7010008C70100085F
:10016000C7010008C70100080000000000000000EF
:10017000000000000000000000000000000000007F
:1001800000000000C701000800000000000000009F
:10019000C7010008C7010008DFF80CD000F0A2F882
:1001A00000480047CD520008F82600200648804746
:1001B00006480047FEE7FEE7FEE7FEE7FEE7FEE74C
:1001C000FEE7FEE7FEE7FEE7CD28000899010008FC
:1001D0002DE9F05F0546002092469B46884606467C
:1001E000814640241BE0284641464746224600F00F
:1001F00069F853465A46C01A914110D31146184621
:10020000224600F050F82D1A67EB01084F462246AF
:100210000120002100F047F817EB00094E41201E95
:10022000A4F10104DFDC484631462A464346BDE8D6
:10023000F09F40EA01039B0703D009E008C9121FA1
:1002400008C0042AFAD203E011F8013B00F8013B90
:10025000521EF9D27047D2B201E000F8012B491EBC
:10026000FBD270470022F6E710B513460A46044653
:100270001946FFF7F0FF204610BD30B50B4601468A
:1002800000202022012409E021FA02F59D4205D335
:1002900003FA02F5491B04FA02F52844151EA2F1DF
:1002A0000102F1DC30BD202A04DB203A00FA02F121
:1002B000002070479140C2F1200320FA03F3194354
:1002C00090407047202A04DB203A21FA02F00021F6
:1002D000704721FA02F3D040C2F120029140084356
:1002E00019467047064C074D06E0E06840F00103F0
:1002F00094E8070098471034AC42F6D3FFF750FF5C
:10030000705500089055000870B58C1810F8015B06
:1003100015F0070301D110F8013B2A1106D110F89E
:10032000012B03E010F8016B01F8016B5B1EF9D1A2
:100330002B0705D40023521E0DD401F8013BFAE728
:1003400010F8013BCB1A921C03E013F8015B01F893
:10035000015B521EF9D5A142D8D3002070BD00BF69
:10036000FEE7000010B50346042B15D007DC7BB177
:10037000012B0ED0022B0DD0032B15D10BE0202B1F
:100380000BD0212B0DD0222B0CD0232B0CD10AE02B
:100390000BE00AE009E008E007E00120044C2070CF
:1003A00003E002E001E000E000BF00BF002010BD5C
:1003B000160000200020704710B5002204490548AF
:1003C00002F0F5FB0449034802F0EAFB002010BDEF
:1003D000F00E002054020020F006002070B5044604
:1003E0000D462146034802F0DBFB024802F0B4FB55
:1003F000002070BD540200202DE9F04104460D4656
:1004000000260A48D0F89072D7F8140210B10120E3
:10041000BDE8F0812A462146044802F0C8FB0348A3
:1004200002F049FC06463046F2E700005402002084
:100430007047704770B50A480468001D0568001DC4
:100440000668344454B108220649204601F09DFE56
:10045000042204491031284601F097FE70BD0000C7
:10046000107AFF1F6600002070B5044600F008F9FE
:1004700006462546681C10B104480078054400BFB4
:1004800000F0FEF8801BA842FAD370BD28000020BF
:10049000F8B503460A460025002400200021CDE0DF
:1004A000012606FA01F5166806EA0504AC4273D186
:1004B0005668022E02D05668122E13D1CF0803F1CF
:1004C000200656F827004E07F70E0F26BE40B04311
:1004D0004F07FF0E1669BE403043CF0803F12006D8
:1004E00046F8270018684F000326BE40B04316792F
:1004F00006F003064F00BE40304318605668012ED8
:1005000008D05668022E05D05668112E02D05668C3
:10051000122E13D198684F000326BE40B0434F00FF
:10052000D668BE4030439860586801268E40B0437C
:100530001679C6F300168E4030435860D8684F00D5
:100540000326BE40B0434F009668BE403043D8609B
:10055000566806F08056B6F1805F6ED100BF002667
:100560000096384E366846F48046364F3E603E462A
:10057000366806F48046009600BF00BF324E8F08F2
:1005800056F827008E07370F0F26BE40B0432F4E78
:10059000B34202D1002615E04FE02D4EB34201D107
:1005A00001260FE02B4EB34201D102260AE02A4E6B
:1005B000B34201D1032605E0284EB34201D10426FF
:1005C00000E007268F073F0FBE4030431E4E8F08C6
:1005D00046F82700224E3068A043566806F480365D
:1005E000B6F5803F00D120431D4E3060361D306887
:1005F000A043566806F40036B6F5003F00D120430C
:10060000174E361D3060361D3068A043566806F41C
:100610008016B6F5801F00D12043114E0836306099
:10062000361D3068A043566806F40016B6F5001F64
:1006300000D120430A4E0C363060491C1029FFF4CB
:100640002FAFF8BD44380240083801400000024096
:100650000004024000080240000C0240001002406A
:10066000003C0140024613690B400BB1012000E041
:10067000002070470AB1816101E00B04836170477B
:10068000014800687047000020000020034800680F
:100690000349097808440149086070472000002098
:1006A0002800002010B50D48006840F400700B4988
:1006B00008600846006840F48060086008460068EA
:1006C00040F480700860032000F0A2F8002000F0E1
:1006D00007F800F02BF8002010BD0000003C02409D
:1006E00070B504460E4800784FF47A71B1FBF0F013
:1006F0000C490968B1FBF0F5284601F02AFD08B164
:10070000012070BD102C07D200222146501E00F09F
:1007100041F80548046001E00120F2E70020F0E71D
:10072000280000202C0000202400002008B500BF75
:10073000002000900E48006840F480400C4908609A
:100740000846006800F48040009000BF00BF00BF72
:1007500000200090081F006840F08050091F0860CA
:100760000846006800F08050009000BF00BF08BD40
:100770004438024001460846002809DB00F01F0308
:1007800001229A4043099B0003F1E023C3F80021B2
:1007900000BF70472DE9F05F80460D4616460027E2
:1007A00004F076F9074639462A46334601F0070039
:1007B000C0F1070ABAF1040F02D94FF0040A01E0B0
:1007C000C0F1070AD14600F1040ABAF1070F02D2BC
:1007D0004FF0000A01E0A0F1030AD4464FF0010AED
:1007E0000AFA09FAAAF1010A0AEA020A0AFA0CFA52
:1007F0004FF0010B0BFA0CFBABF1010B0BEA030BF7
:100800004AEA0B042146404604F04AF9BDE8F09F4D
:1008100000BF00F00702064B19684FF6FF031940AE
:10082000044B0B4343EA0221014B196000BF7047A0
:100830000CED00E00000FA057047024610684162C6
:1008400000207047F0B5034615461868446A21B980
:1008500044EA05401E68B06219E01868806A04EB3B
:100860001044002208E0186800F5827050F8220059
:1008700004EB1044501CC2B2481E9042F3D844EA24
:100880000547186800F582704E1E40F8267000205B
:10089000F0BD10B50446D4F8040402F09DFD10BD6F
:1008A00070B504460D46C5EBC50304F13C0101EBF0
:1008B0008301CA682946D4F8040402F0BAFC70BD6A
:1008C00070B504460D46C5EBC50304F5FE7101EB9A
:1008D0008301CA682946D4F8040402F02AFD70BDD9
:1008E00010B50446D4F8040402F079FD10BD70B5CB
:1008F00004460E4606F0800080280AD106F00F005C
:10090000C0EBC00104F13C0000EB810501206870E0
:1009100009E006F00F00C0EBC00104F5FE7000EB2B
:1009200081050020687006F00F00287000BF94F861
:10093000BC03012801D1022070BD012084F8BC0352
:1009400000BF2946206803F045FA00BF002084F864
:10095000BC0300BF00BFEFE770B504460E4606F0CB
:100960000F006168884201D9012070BD06F0800047
:1009700080280AD106F00F00C0EBC00104F13C0052
:1009800000EB81050120687009E006F00F00C0EB64
:10099000C00104F5FE7000EB8105002068700020A6
:1009A000A87006F00F00287000BF94F8BC0301285F
:1009B00001D10220D9E7012084F8BC0300BF2946F9
:1009C000206803F0AFFC00BF002084F8BC0300BF28
:1009D00000BFCAE7024601F00F00C0EBC00302F5FA
:1009E000FE7000EB8300806970472DE9F0470546F3
:1009F0000E4690461F464FF0000906F08000802802
:100A00000AD106F00F00C0EBC00105F13C0000EB7D
:100A100081040120607009E006F00F00C0EBC00106
:100A200005F5FE7000EB81040020607006F00F00F9
:100A30002070C4F80880E770607808B12078E08002
:100A4000022F01D10020207100BF95F8BC030128BE
:100A500002D10220BDE8F087012085F8BC0300BF69
:100A60002146286803F0C2F800BF002085F8BC03C7
:100A700000BF4846EEE72DE9F04104460E46174612
:100A8000984606F00F00C0EBC00104F5FE7000EBC5
:100A90008105EF60C5F814800020A861687006F039
:100AA0000F0028702069012800D12F6106F00F0087
:100AB00028B9227C2946206803F010FB04E0227C40
:100AC0002946206803F0C2FC0020BDE8F08170B523
:100AD00004460D4605F00F006168884201D90120E7
:100AE00070BD05F0800080280AD105F00F00C0EB32
:100AF000C00104F13C0000EB81060120707007E0AA
:100B0000C5EBC50104F5FE7000EB81060020707096
:100B10000120B07005F00F00307000BF94F8BC03E6
:100B2000012801D10220DBE7012084F8BC0300BFCB
:100B30003146206803F03DFC05F00F0028B9217C08
:100B400004F57172206803F0B5FB00BF002084F843
:100B5000BC0300BF00BFC3E72DE9F04104460E46C9
:100B60001746984606F00F00C0EBC00104F13C00A8
:100B700000EB8105EF60C5F814800020A86101201A
:100B8000687006F00F0028702069012800D12F61DD
:100B900006F00F0028B9227C2946206803F09EFA4F
:100BA00004E0227C2946206803F050FC0020BDE8C8
:100BB000F0812DE9FE4F044620680290029E2068D5
:100BC00003F02FFE00287DD1206803F069FE08B9EC
:100BD000BDE8FE8F206803F063FE00F002000228EB
:100BE00005D12068406900F0020021684861206852
:100BF00003F056FE00F40020B0F5002F58D1002578
:100C0000206803F01DFE82464FE00AF00100002834
:100C100048D0E9B2206803F036FE804608F00100B3
:100C200048B1012106F5306000EB4510816029468E
:100C3000204601F045FC08F00800082809D12946A3
:100C4000204601F0F7FB082106F5306000EB451067
:100C5000816008F01000102805D1102106F53060E1
:100C600000EB4510816008F0200020280ED120699B
:100C7000012805D104F571720121206803F01AFBE7
:100C8000202106F5306000EB4510816008F400502B
:100C9000B0F5005F06D14FF4005106F5306000EB6F
:100CA000451081606D1C4FEA5A0ABAF1000FACD1B1
:100CB000206803F0F5FD00F48020B0F5802F7ED190
:100CC000206800E012E203F0B1FD8246002586E0D4
:100CD0000AF0010000287FD0E9B2206803F0BAFDD5
:100CE000804608F00100E8B305F00F0101208840BC
:100CF000019040F634008159019821EA000040F645
:100D000034018851012106F5106000EB4510816027
:100D10002069012815D1C5EBC50104F13C0000EBA9
:100D20008100C5EBC502C16804F13C0000EB820004
:100D300080680144C5EBC50204F13C0000EB820071
:100D4000C160E9B22046FFF7ABFD2069012810D150
:100D500045B9C5EBC50104F13C0000EB81004069D9
:100D600000B900E005E004F571720121206803F08C
:100D7000A1FA08F00800082805D1082106F510603E
:100D800000EB4510816008F01000102805D11021FB
:100D900006F5106000EB4510816008F04000402827
:100DA00005D1402106F5106000EB4510816008F088
:100DB0000200022808D1022106F5106001E012E0CD
:100DC0000AE000EB4510816008F08000802803D124
:100DD0002946204601F034FC6D1C4FEA5A0ABAF14C
:100DE000000F7FF475AF206803F05AFD00F000405B
:100DF000B0F1004F1CD140F60400805920F00101F1
:100E000040F60400815194F8F403012807D1002032
:100E100084F8F40300212046FFF70EFD02E020468F
:100E200000F092FA2068406900F0004021684861B3
:100E3000206803F035FD00F40060B0F5006F0ED1BE
:100E400040F60800805900F0010010B1204600F083
:100E5000D3FA2068406900F4006021684861206886
:100E600003F01EFD00F48050B0F5805F72D140F6B3
:100E70000400805920F0010140F604008151102146
:100E8000206803F0A3FC002726E04FF67F3106F52B
:100E9000106000EB4710816006F5106000EB471012
:100EA000006820F4001106F5106000EB47100160A7
:100EB0004FF67F3106F5306000EB4710816006F594
:100EC000306000EB4710006820F4001106F5306038
:100ED00000EB471001607F1C6068B842D5D840F62F
:100EE0001C00805940F0011140F61C008151206B1C
:100EF00070B1D6F8840840F00B01C6F8841840F6AB
:100F00004400805940F00B0140F6440081510FE04D
:100F100040F61400805942F22B01084340F61401B8
:100F20008851081F805940F00B014FF40160815136
:100F3000D6F8000820F4FE60C6F80008217C04F50D
:100F40007172206803F0B6F92068406900F480509F
:100F500021684861206803F0A3FC00F40050B0F55C
:100F6000005F17D1206802F0A9FE206803F046FC5C
:100F7000E06000F0F7FB0090227B2068009903F00E
:100F8000DFFC204600F0CEF92068406900F40050F4
:100F900021684861206803F083FC00F010001028ED
:100FA00046D12068806920F010002168886102988D
:100FB000D0F8209009F00F00C0EBC00104F5FE70DE
:100FC00000EB810BC9F3434002281AD147F6F070B9
:100FD00009EA000030B3C9F30A12DBF80C100298DA
:100FE00003F063FCC9F30A11DBF80C000844CBF8EA
:100FF0000C00C9F30A11DBF818000844CBF81800FC
:1010000010E0C9F3434006280CD1082204F57171A1
:10101000029803F04AFCC9F30A11DBF818000844EF
:10102000CBF818002068806940F0100021688861C2
:10103000206803F035FC00F00800082808D120469D
:1010400000F089F92068406900F0080021684861D3
:10105000206803F025FC00F48010B0F5801F0AD151
:1010600000252946204600F043F82068406900F436
:10107000801021684861206803F012FC00F4001021
:10108000B0F5001F0AD100252946204600F039F8A6
:101090002068406900F4001021684861206803F06E
:1010A000FFFB00F08040B0F1804F08D12046FFF7F1
:1010B000F0FB2068406900F08040216848612068AA
:1010C00003F0EEFB00F0040004280FD12068D0F8F4
:1010D000049009F00400042802D12046FFF700FC28
:1010E0002068406840EA09002168486000BF6FE559
:1010F00070B504460D462946D4F8040402F0D6F92A
:1011000070BD70B504460D462946D4F8040402F0BB
:10111000D0F970BD70B58AB0044614B901200AB088
:1011200070BD266894F8BD0328B9002084F8BC037C
:10113000204600F0A3F8032084F8BD03F06B00F410
:10114000807008B900212161206802F0BFFF2822C9
:1011500004F110016846FFF76CF894E80F0002F004
:10116000D1FD20B1022084F8BD030120D7E7002182
:10117000206803F0ABFB002531E00121C5EBC5027F
:1011800004F13C0000EB82004170C5EBC50104F1A5
:101190003C0000F82150C5EBC50100EB8100C58083
:1011A0000021C5EBC50204F13C0000EB8200C170D8
:1011B000C5EBC50204F13C0000EB82008160C5EB89
:1011C000C50204F13C0000EB8200C160C5EBC50222
:1011D00004F13C0000EB82004161681CC5B260680C
:1011E000A842CAD800252AE00021C5EBC50204F5B3
:1011F000FE7000EB82004170C5EBC50104F5FE7086
:1012000000F821500021C5EBC50200EB8200C1703F
:10121000C5EBC50204F5FE7000EB82008160C5EBF2
:10122000C50204F5FE7000EB8200C160C5EBC5028B
:1012300004F5FE7000EB82004161681CC5B2606875
:10124000A842D1D8282204F110016846FEF7F1FF28
:1012500094E80F0002F040FE20B1022084F8BD03A4
:1012600001205CE7002084F83800012084F8BD03E9
:10127000206802F021FE002051E7000010B586B082
:101280000446142101A8FEF7EDFF2068B0F1A04F3D
:1012900042D100BF002000902048006840F00100CB
:1012A0001E4908600846006800F00100009000BF79
:1012B00000BF4FF4C0500190022002900020039024
:1012C000032004900A20059001A91548FFF7E0F8D3
:1012D00000BF1248001D006840F080000F49091D42
:1012E000086000BF002000900C481430006840F4F3
:1012F00080400A49143108600846006800F48040C4
:10130000009000BF00BF00BF002211464320FFF73E
:1013100041FA4320FFF72EFA06B010BD30380240E4
:101320000000024070B504460125E068022801D0A3
:10133000FFF77FF82946D4F8040402F033F9D4F813
:10134000040402F0E9F870BD10B50446D4F80404B2
:1013500002F010F910BD10B50446D4F8040402F0F0
:1013600010F910BD70B504460D4600BF94F8BC03DB
:10137000012801D1022070BD012084F8BC0300BF08
:1013800084F838502946206803F0BBFA00BF0020DB
:1013900084F8BC0300BF00BFEDE710B5044604F5B8
:1013A0007171D4F8040402F014F910BD70B504464C
:1013B000256800BF94F8BC03012801D1022070BD4C
:1013C000012084F8BC0300BFA06A012806D1A069EF
:1013D000012803D0A86B40F48030A863206802F095
:1013E0005BFD206803F0D4F900BF002084F8BC0343
:1013F00000BF00BFE3E7000010B50446D4F80404C2
:1014000002F040F92068D0F8000E40F00100216899
:10141000C1F8000E206A28B10348006840F00600B9
:101420000149086010BD000010ED00E0F8B5044669
:1014300000250026207800F0010020B9207800F077
:101440000400042831D1002060498866FFF718F9AC
:10145000054606E0FFF714F9401B022801D90320D6
:10146000F8BD5B480068C0F3C0600028F2D1D4E941
:10147000011041EA8011207B41EA00705449843117
:101480000860012051498866FFF7FAF8054606E032
:10149000FFF7F6F8401B022801D90320E0E74C488B
:1014A0000068C0F3C0600028F2D0207800F002008D
:1014B00002287DD100BF00200090454840300068E0
:1014C00040F080504249403108600846006800F012
:1014D0008050009000BF00BF3E48006840F480701C
:1014E0003C490860FFF7CCF8054606E0FFF7C8F86E
:1014F000401B022801D90320B2E73648006800F4F7
:1015000080700028F2D032487030006800F44076D5
:101510004EB3208A00F44070B04224D02C48703082
:10152000006820F4407601202B4908600020086004
:10153000274870300660006800F0010098B1FFF79E
:101540009FF8054608E0FFF79BF8401B41F2883101
:10155000884201D9032083E71D4870300068C0F33A
:1015600040000028EFD000BF208A00F44070B0F5A2
:10157000407F0CD116480830006820F4F810174A54
:1015800021691140084312490831086007E01048FA
:101590000830006820F4F8100D49083108600C4844
:1015A00070300068218AC1F30B010843084900E04C
:1015B00002E07031086000BF207800F008000828C1
:1015C00002D1207D06490860002049E7000047421B
:1015D0000038024000700040400E4742FFFCFF0F01
:1015E000E011474270B504460D460CB9012070BDAC
:1015F0005848006800F00F00A84209D255490D7004
:101600000846006800F00F00A84201D00120EEE774
:10161000207800F0020002281DD1207800F004009C
:10162000042805D14C48006840F4E0504A4908605D
:10163000207800F00800082805D14748006840F4E9
:101640006040454908604448006820F0F000A16807
:10165000084341490860207800F00100A8B36068A1
:10166000012807D13C4808380068C0F34040B8B9A9
:101670000120BCE76068022802D06068032807D117
:10168000354808380068C0F3406048B90120AEE72B
:10169000314808380068C0F3400008B90120A6E7C7
:1016A0002D48006820F00300616808432A4908605B
:1016B000FEF7E6FF064609E0FEF7E2FF801B41F277
:1016C0008831884202D9032091E707E02248006868
:1016D00000F00C006168B0EB810FEDD11D4800688F
:1016E00000F00F00A84209D91A490D700846006899
:1016F00000F00F00A84201D0012078E7207800F028
:101700000400042807D11448006820F4E050E16880
:10171000084311490860207800F00800082808D123
:101720000D48006820F46040216940EAC1000A4980
:10173000086000F01DF808490968C1F30311074A61
:10174000515CC840064908600020FEF7C9FF002030
:101750004DE70000003C02400838024058550008A0
:101760002C00002001480068704700002C00002079
:101770002DE9F047002400250026A14625480068F1
:1017800000F00C0020B1042805D008283AD105E06B
:10179000DFF8849039E0DFF8849036E01D48001FC0
:1017A000006800F03F041B48001F006800F4800040
:1017B00078B11A481749091F0968C1F38811A0FBBD
:1017C00001700146224600233846FEF701FD05461A
:1017D0000EE011480F49091F0968C1F38811A0FBE9
:1017E00001700146224600233846FEF7F1FC05460B
:1017F0000848001F0068C0F30140401C4600B5FBCC
:10180000F6F902E0DFF8109000BF00BF4846BDE8DF
:10181000F0870000083802400024F40040787D0181
:1018200070B586B006460C46154646BB00BF002084
:1018300000902848006840F00100264908600846EA
:10184000006800F00100009000BF00BF8815019003
:10185000022002900320049000200390059001A92B
:101860001D48FEF715FE1B482838006820F0EC6084
:1018700044EA0501084317492839086027E000BFFA
:10188000002000901348006840F0040011490860EF
:101890000846006800F00400009000BF00BF481533
:1018A00001900220029003200490002003900590F4
:1018B00001A90A48FEF7ECFD06482838006820F028
:1018C000784044EAC501084302492839086006B057
:1018D00070BD0000303802400000024000080240A5
:1018E000F8B504460CB90120F8BD207800F00100DD
:1018F000002874D0F948006800F00C0004280DD0CE
:10190000F648006800F00C00082813D1F348001FC7
:10191000006800F48000B0F5800F0BD1EF48083864
:101920000068C0F34040002859D06068002856D1B4
:101930000120D9E700BF6068B0F5803F08D1E748D3
:101940000838006840F48030E449083908601EE037
:101950006068B0F5A02F0DD1E0480838006840F469
:101960008020DE49083908600846006840F480306D
:1019700008600CE0D9480838006820F48030D74966
:10198000083908600846006820F48020086000BF1D
:10199000606890B1FEF774FE054606E0FEF770FE43
:1019A000401B642801D903209EE7CC480838006812
:1019B000C0F340400028F1D011E0FEF761FE05467B
:1019C00006E0FEF75DFE401B642801D903208BE78B
:1019D000C24808380068C0F340400028F1D12078A0
:1019E00000F0020002285FD1BC48006800F00C0043
:1019F00058B1BA48006800F00C0008281CD1B7485C
:101A0000001F006800F48000B0B9B44808380068CE
:101A1000C0F3400020B1E068012801D0012063E755
:101A2000AE480838006820F0F800216940EAC1009B
:101A3000AA490839086037E0E06800B30120A849E6
:101A40000860FEF71DFE054606E0FEF719FE401B86
:101A5000022801D9032047E7A04808380068C0F3EE
:101A600040000028F1D09D480838006820F0F800B8
:101A7000216940EAC10099490839086014E0002052
:101A800097490860FEF7FCFD054606E0FEF7F8FD05
:101A9000401B022801D9032026E790480838006837
:101AA000C0F340000028F1D1207800F00800082899
:101AB0002CD16069A8B101208A490860FEF7E0FDD9
:101AC000054606E0FEF7DCFD401B022801D9032095
:101AD0000AE782486C300068C0F340000028F1D06B
:101AE00014E000207F490860FEF7CAFD054606E0C5
:101AF000FEF7C6FD401B022801D90320F4E6774813
:101B00006C300068C0F340000028F1D1207800F06C
:101B10000400042870D1002670483830006800F0B6
:101B2000805090B900BF002000906C4838300068A9
:101B300040F080506949383108600846006800F07C
:101B40008050009000BF00BF01266748006800F485
:101B50008070B0B96448006840F4807062490860E1
:101B6000FEF78EFD054606E0FEF78AFD401B0228C3
:101B700001D90320B8E65C48006800F480700028B2
:101B8000F2D000BFA068012808D15448683000682E
:101B900040F001005149683108601DE0A068052847
:101BA0000DD14E486830006840F004004B49683160
:101BB00008600846006840F0010008600CE04748F3
:101BC0006830006820F00100444968310860084628
:101BD000006820F00400086000BFA068A8B1FEF70C
:101BE0004FFD054609E0FEF74BFD401B41F28831F1
:101BF000884202D9032077E626E03848683000683A
:101C0000C0F340000028EED013E0FEF739FD054692
:101C100008E0FEF735FD401B41F28831884201D9CA
:101C2000032061E62D4868300068C0F340000028BA
:101C3000EFD1012E07D129483830006820F08050BC
:101C400026493831086000BFA069B8B3234800684E
:101C500000F00C0008285ED0A069022846D10020C0
:101C60001F490866FEF70CFD054606E0FEF708FD75
:101C7000401B022801D9032036E6184808380068BE
:101C8000C0F340600028F1D1D4E907010843616A3C
:101C900040EA81110122A06AC2EB500041EA0041F2
:101CA0002C20005D41EA00600C49091F08600120FA
:101CB0000B490866FEF7E4FC054607E02DE0FEF759
:101CC000DFFC401B022801D903200DE60348083839
:101CD0000068C0F340600028F1D01EE008380240E0
:101CE00000004742800E47420070004000200C492F
:101CF0000866FEF7C5FC054606E0FEF7C1FC401B82
:101D0000022801D90320EFE506480068C0F34060CF
:101D10000028F2D101E00120E6E50020E4E5000022
:101D2000000047420038024002460023106800F1DC
:101D3000500303EB81031868704710B50023046853
:101D400004F1500303EB81031A6010BD70B5054622
:101D50000B4616460024286840680E4900EA010434
:101D6000200CD870C4F30420587004F03F00987021
:101D7000C4F3423018705EB9D87800F0BDFCD8705A
:101D8000587800F0B9FC5870987800F0B5FC98705D
:101D9000002070BD3FFFFF0070B504460B4616469D
:101DA00000252068806A586020680069C0F30E0032
:101DB0009860206800680F4900EA0105C5F30540F6
:101DC0001870C5F30620587005F07F00987005F470
:101DD0008000000CD8705EB9187800F08DFC187087
:101DE000587800F089FC5870987800F085FC98705D
:101DF000002070BD7F7F7F0010B504460CB9012024
:101E000010BD607F20B900202077204600F060F8E8
:101E10000220607700BFCA202168486253202168F1
:101E2000486200BF204600F0BDFC40B100BFFF206B
:101E30002168486200BF042060770120E0E7206845
:101E400080682249084021688860216960680843E9
:101E500061690843216889680843216888602168AE
:101E6000E068086120680169208941EA0040216832
:101E700008612068C06820F080002168C860206880
:101E8000806800F0200060B9204600F045F940B1BC
:101E900000BFFF202168486200BF04206077012056
:101EA000AEE72068006C20F4802021680864206878
:101EB000006CA16908432168086400BFFF20216805
:101EC000486200BF01206077002099E7BFFF8FFFC5
:101ED000034A0168914202D10121024A1160704710
:101EE000002800403C0E47422DE9F04104460D46D3
:101EF0001646002700BF207F012802D10220BDE83E
:101F0000F0810120207700BF022060774EB9687809
:101F100000F01000102804D1687800F0EF000A30BB
:101F2000687086B9E87800F0F2FB0304687800F086
:101F3000EEFB43EA0023A87800F0E9FB034328788E
:101F400043EA403709E0E8780004697840EA012074
:101F5000A9780843297840EA413700BFCA202168A0
:101F6000486253202168486200BF204600F01AFCF6
:101F700060B100BFFF202168486200BF0420607785
:101F800000BF0020207700BF0120B8E71648384086
:101F9000216848602068C06820F080002168C8601F
:101FA0002068806800F0200080B9204600F0B4F876
:101FB00060B100BFFF202168486200BF0420607745
:101FC00000BF0020207700BF012098E700BFFF205E
:101FD0002168486200BF0120607700BF00202077A1
:101FE00000BF00BF8BE700003FFFFF002DE9F0417D
:101FF00004460D461646002700BF207F012802D167
:102000000220BDE8F0810120207700BF0220607728
:10201000CEB92068806800F0400000B102E00020E6
:10202000E87000BF287800F072FB0304687800F0C5
:102030006EFB43EA0023A87800F069FB0343E878CD
:1020400043EA004712E02068806800F0400000B1D9
:1020500002E00020E87000BF28780004697840EAB8
:102060000120A9780843E97840EA014700BFCA2067
:102070002168486253202168486200BF204600F072
:1020800091FB60B100BFFF202168486200BF0420BF
:10209000607700BF0020207700BF0120B1E71D4816
:1020A0003840216808602068806820F4802021681A
:1020B0008860D5E9030108432168896808432168DD
:1020C00088602068C06820F080002168C8602068AF
:1020D000806800F0200080B9204600F01DF860B153
:1020E00000BFFF202168486200BF0420607700BF66
:1020F0000020207700BF012083E700BFFF20216878
:10210000486200BF0120607700BF0020207700BF39
:1021100000BF76E77F7F7F0070B50446002520680A
:10212000C06820F0A0002168C860FEF7A9FA054643
:1021300007E0FEF7A5FA401BB0F57A7F01D903202E
:1021400070BD2068C06800F020000028F1D0002099
:10215000F6E770B504462546681EB0F1807F01D3CE
:1021600001200FE0681E4FF0E02148610F214FF081
:10217000FF3002F095FC00204FF0E021886107203D
:102180000861002070BD00BFFEE730B50B4600219E
:1021900000BF16E00A24B4EB107F05D9302404EB0D
:1021A000107403F8114005E0412404EB10740A3C5C
:1021B00003F81140000100254C00641C1D554C1C07
:1021C000E1B29142E6DB30BD00B587B0142102A830
:1021D000FEF748F800BF002001902A48006840F050
:1021E0000400284908600846006800F004000190D7
:1021F00000BF00BF00BF002001900846006840F00B
:10220000800008600846006800F08000019000BF70
:1022100000BF00BF002001900846006840F00100A8
:1022200008600846006800F00100019000BF00BF90
:10223000012251031448FEF71DFA4FF4005002909A
:102240000120039000200490059002A90E48FEF79B
:102250001FF901200290002003900120049002A9A0
:102260000A48FEF715F94FF480700290022003909F
:10227000002004900590069002A90448FEF708F992
:1022800007B000BD303802400008024000000240A4
:1022900000B587B0142102A8FDF7E4FF00200190EB
:1022A000474848490860002048607F2145488160D0
:1022B000FF21C1600021016141618161FFF79CFD47
:1022C00008B1FEF7B6F801213E48FFF72DFD43F2B5
:1022D000F221884205D00A4601213A48FFF72DFD38
:1022E00046E039480068C0F3C06088B100224FF46E
:1022F00000513648FEF7BEF90920FEF7B5F8012275
:1023000051033248FEF7B6F940F2F310FEF7ACF88D
:102310002D480068C0F3806010B300224FF40051D4
:102320002A48FEF7A7F90920FEF79EF8012251037B
:102330002648FEF79FF96320FEF796F800224FF437
:1023400000512248FEF796F90920FEF78DF8012288
:1023500051031E48FEF78EF940F2F310FEF784F8A1
:102360001948006840F080701749086007B000BD48
:1023700000208DF808008DF809008DF80A000590FE
:102380000690012202A90F48FFF730FE08B1FEF7C0
:1023900050F801208DF8040008208DF80500122067
:1023A0008DF8060019208DF80700012201A90548C3
:1023B000FFF79AFD08B1FEF73CF800BFD6E7000032
:1023C0000028004034020020743802400008024017
:1023D00010B500220D490E4800F0ECFE08B1FEF7E2
:1023E00028F80C490A4801F083F908B1FEF721F8F2
:1023F0000949074800F0CDFB08B1FEF71AF8044878
:1024000001F040FA08B1FEF714F810BD30000020CA
:1024100054020020A00000208000002000BFFEE742
:102420007047000010B50248FEF7C3FB10BD000066
:10243000F01600202DE9F04705460C462F683E4671
:10244000D7F8408006F5306000EB4410D0F80890D3
:10245000286901280FD1184880451BD909F400408C
:10246000B0F5004F16D14FF4004106F5306000EB97
:10247000441081600EE0114880450BD109F4004002
:10248000B0F5004F06D14FF4004106F5306000EB87
:10249000441081602846FEF780FF0748804508D930
:1024A0002869012805D105F571720121286801F01C
:1024B00001FF0020BDE8F0870A30544F0A31544F25
:1024C0002DE9F04705460C46D5F800804646D8F879
:1024D000409006F5306000EB4410876828690128B9
:1024E0007ED107F0080008281ED1534881450BD93A
:1024F00007F40040B0F5004F06D14FF4004106F557
:10250000306000EB441081602846FEF746FF05F579
:1025100071720121286801F0CDFE082106F53060B6
:1025200000EB4410816083E007F02000202806D1F2
:10253000202106F5306000EB4410816078E007F060
:102540002800002874D13C4881450CD907F400408C
:10255000B0F5004F07D14FF4004106F5306000EBB5
:102560004410816064E0C4EBC40105F5FE7000EB2B
:102570008100816806F5306000EB44100069C0F30B
:102580001200091AC4EBC40205F5FE7000EB8200CC
:102590008161C4EBC40105F5FE7000EB8100C4EB62
:1025A000C402C16805F5FE7000EB8200806801443A
:1025B000C4EBC40205F5FE7000EB8200C160E1B21D
:1025C0002846FEF77DF9FCB9C4EBC40105F5FE70A1
:1025D00000EB81004069B8B905F57172012100E096
:1025E00003E0286801F066FE22E0144881451BD113
:1025F00007F40040B0F5004F07D14FF4004106F555
:10260000306000EB4410816012E007F020002028C9
:1026100005D1202106F5306000EB44108160E1B265
:102620002846FEF74DF903E0E1B22846FEF748F9E7
:102630000020BDE8F08700000A30544F0A31544FA3
:102640002DE9F84F07460E46D7F80090C846C6EB6E
:10265000C60107F13C0000EB8104D4E90510884273
:1026600002D90120BDE8F88FD4E90501451AA06818
:10267000A84200D2A568E81C4FEA900A17E0D4E906
:102680000501451AA068A84200D2A568E81C4FEAD7
:10269000900A387CABB2F2B200904846E16802F092
:1026A000C3F9E0682844E060A0692844A06108F507
:1026B000106000EB4610806980B2504506D3D4E923
:1026C0000510884202D260690028D8D1D4E90501FA
:1026D00088420ED806F00F01012000FA01FB40F6F7
:1026E000340050F8080020EA0B0040F6340141F8AD
:1026F00008000020B6E77047014600BF080900EB5C
:102700008000420001F00F001044C0B27047014643
:10271000002203E0521CA1F10A00C1B20A29F9D239
:10272000100741EA1060704730B58BB004460022B4
:1027300005A91248FFF730FB00220AA90F48FFF74E
:1027400005FB9DF82B0000F5FA609DF82A109DF816
:1027500029209DF81630CDE90032CDE902109DF810
:1027600015309DF8142006A1204602F07DF905469B
:10277000A9B22046FDF740FE0BB030BD3402002068
:10278000253032643A253032643A253032642C25C3
:10279000303264D4C225303264C8D5253264C4EAEC
:1027A0000D0A000070B5044600252068C06800F0DE
:1027B0004000A0B9681E2168C860FDF761FF0546AA
:1027C00007E0FDF75DFF401BB0F57A7F01D90320DC
:1027D00070BD2068C06800F040000028F1D00020E3
:1027E000F6E7704710B5FDF751FF10BD00B599B081
:1027F00030210DA8FDF736FD142108A8FDF732FDA4
:10280000182102A8FDF72EFD00BF002001902D48E1
:10281000006840F080502B4908600846006800F0CE
:102820008050019000BF00BF00BF002001902648EB
:10283000006840F44040244908600846006800F4FD
:102840004040019000BF00BF05200D904FF4803044
:102850000E9001200F900220139041051491192130
:102860001591C021169102211791042118910DA8EC
:10287000FFF736F808B1FDF7DCFD0F2008900220C5
:10288000099000200A904FF480500B9000200C908B
:10289000032108A8FEF7A6FE08B1FDF7CAFD022035
:1028A0000290C001069002A8FEF7C0FD08B1FDF736
:1028B000C0FD4FF0E0624FF480010020FEF7B0FF52
:1028C00019B000BD40380240007000401448006854
:1028D00040F47000124908601248006840F001009E
:1028E0001049086000200F49083108600D48006851
:1028F0000D4908400B4908600C48091D0860081F75
:10290000006820F48020091F0860002005490C3170
:1029100008604FF00060024980390860704700008D
:1029200088ED00E000380240FFFFF6FE1030002482
:102930002DE9F04104460D46D4F89062D4F898721F
:10294000D4F8900278B305EB850104F1140000EB94
:102950008100806808B305EB850104F1140000EBE9
:102960008100C5EBC502816807F13C0000EB8200E5
:102970008068B1FBF0F200FB121070B9002105EB8A
:10298000850204F1140000EB8200816000231A46E6
:102990002946204600F080FE02E00020C6F814021E
:1029A0000020BDE8F081FFE70220FAE770B5044699
:1029B0000E46D4F890523146204600F01DFDC5F871
:1029C0000C02D4F8900248B1D5F80402D4F894125D
:1029D000CA6805F503719047002070BD0220FCE72E
:1029E00070B504460E4600258121204600F00EFCFD
:1029F0000021E1620121204600F008FC0021C4F81A
:102A000058118221204600F001FC00212164D4F8F5
:102A1000900250B1D4F8941248688047D4F89002DC
:102A200002F008FA0020C4F89002284670BD70B584
:102A30000546D5F89042D5F8940278B194F8000292
:102A4000FF280BD094F8012294F80002D5F89412D4
:102A50008B6821469847FF2084F80002002070BD53
:102A600001460A20088001487047000094000020B9
:102A70000146432008800148704700001C010020E7
:102A8000014643200880014870470000D80000201C
:102A90000146432008800148704700006001002083
:102AA0002DE9F04104460F460026207C88B94FF4FA
:102AB000007302228121204600F0FEFC0121E16228
:102AC0004B020222204600F0F7FC0121C4F8581105
:102AD0000FE0402302228121204600F0EDFC01217D
:102AE000E16240230222204600F0E6FC0121C4F806
:102AF0005811082303228221204600F0DDFC012129
:102B000021644FF4077002F0F1FCC4F89002D4F88D
:102B1000900208B901261CE0D4F89052D4F894121F
:102B2000086880470020C5F81402C5F81802207C08
:102B300040B94FF4007301212046D5F8042200F07B
:102B4000D3FC06E0402301212046D5F8042200F002
:102B5000CBFC3046BDE8F08170B50446D4F8905205
:102B6000D4F8900298B1207C40B94FF40073012151
:102B70002046D5F8042200F0B7FC06E040230121EE
:102B80002046D5F8042200F0AFFC002070BD0220E2
:102B9000FCE70246022011B1C2F8941200207047EF
:102BA0000246D2F89032C3F804120020704710B5E4
:102BB0000346D3F89042C4F80812C4F8102200204B
:102BC00010BD2DE9FC4105460C46D5F89062002069
:102BD000019000900027207800F0600040B320288A
:102BE0005FD1E088E0B1207800F0800060B1E28839
:102BF0006078D5F894128B6831469847E288314660
:102C0000284600F0E6F812E0607886F80002A07925
:102C100086F80102E2883146284600F0B9F806E05D
:102C20006078D5F8941200228B68214698473EE0E0
:102C3000607820B10A2812D00B282AD11FE095F81D
:102C40007402032805D102226946284600F0C1F823
:102C500004E02146284600F08FF802271FE095F88F
:102C60007402032805D1012201A9284600F0B1F819
:102C700004E02146284600F07FF802270FE095F88F
:102C80007402032804D02146284600F075F8022774
:102C900005E02146284600F06FF8022700BF00BF7C
:102CA00005E02146284600F067F8022700BF00BF74
:102CB0003846BDE8FC8170B50546D5F89042D5F898
:102CC0009002A8B1D4F8140280B90120C4F814020B
:102CD000D4F810122963B4F8100283B28121284677
:102CE000D4F8082200F0D8FC002070BD0120FCE7D9
:102CF0000220FAE770B504460D46D4F88C02294646
:102D0000426820469047002070BD70B504460D46CD
:102D100094F87402012804D0022803D003280CD1AF
:102D200001E000BF00BF6888012805D10020C4F879
:102D30007C02204600F05EF804E02946204600F0C0
:102D40001BF800BF00BF70BD70B506460C461546A7
:102D50002B4622460021304600F0C6FB002070BD05
:102D600070B506460C4615462B46224600213046D5
:102D700000F092FC002070BD70B504460D46802125
:102D8000204600F05DFC0021204600F059FC70BD9B
:102D900070B504460E4615460320C4F86C024FF485
:102DA000A4700551001D05512B46324600212046D6
:102DB00000F09AFB002070BD10B504460520C4F851
:102DC0006C0200231A461946204600F08DFB0020B5
:102DD00010BD70B504460E4615460220C4F86C02BC
:102DE000E56125622B4632460021204600F054FC66
:102DF000002070BD10B504460420C4F86C02002306
:102E00001A461946204600F047FC002010BD00007D
:102E100070B505460C462DB92246064906A000F0BD
:102E20008AF904E02246034903A000F084F901482E
:102E300070BD0000F004002043444320436F6E66E1
:102E400069670000024612200880014870470000B0
:102E50004C00002070B505460C462DB922460649A7
:102E600006A000F068F904E02246034903A000F040
:102E700062F9014870BD0000F00400204344432083
:102E8000496E746572666163650000000246042045
:102E900008800148704700006000002070B50546BA
:102EA0000C462246024903A000F045F9004870BDD7
:102EB000F004002053544D6963726F656C65637450
:102EC000726F6E696373000070B505460C462DB9CC
:102ED0002246064906A000F02EF904E022460349E6
:102EE00003A000F028F9014870BD0000F0040020A4
:102EF00053544D3332205669727475616C20436FA0
:102F00006D506F727400000070B505460C461A20B3
:102F10002080FDF78FFA014870BD0000640000209A
:102F200070B504460D46E888012804D0294620469D
:102F3000FFF722FF1EE094F87402012804D0022853
:102F400003D0032810D109E000BF0020A0600122B7
:102F500004F108012046FFF73CFF0AE00122211D91
:102F60002046FFF736FF04E029462046FFF704FF1E
:102F700000BF00BF70BDF8B504460E467088001251
:102F800008287FD2DFE800F07E040C207E7E5F6D93
:102F9000207CD4F888120A6869469047054676E096
:102FA000207C40B9D4F88C02816A6846884705467F
:102FB0000221697007E0D4F88C02C16A684688472C
:102FC00005460221697062E0B078062834D2DFE855
:102FD00000F0030B131B232B207CD4F888124A68C3
:102FE0006946904705462CE0207CD4F888128A6810
:102FF00069469047054624E0207CD4F88812CA68C8
:103000006946904705461CE0207CD4F888120A697E
:1030100069469047054614E0207CD4F888124A6936
:103020006946904705460CE0207CD4F888128A69EE
:1030300069469047054604E031462046FFF79CFE6E
:10304000F8BD00BF23E0207C30B9D4F88C02416B7E
:103050006846884705461AE031462046FFF78CFE51
:10306000EEE7207C48B9D4F88C02016B68468847AB
:103070000546072169700AE004E031462046FFF763
:103080007BFEDDE731462046FFF776FED8E700BF3E
:10309000BDF8000088B1F08878B1F088BDF8001064
:1030A000884202DDBDF8000000E0F0880090BDF825
:1030B000002029462046FFF78CFEF08810B92046F4
:1030C000FFF798FE00BFBBE70146002002E0421C6C
:1030D000D0B2491C0A78002AF9D1704770B504466D
:1030E0000D4694F87402012804D0022803D0032866
:1030F0001AD101E000BF00BFE888022804D02946A9
:103100002046FFF739FE14E00120E060D4F87C028D
:1031100018B1E06840F00200E060022204F10C0106
:103120002046FFF756FE04E029462046FFF724FE1E
:1031300000BF00BF70BD2DE9F04104460D461746A3
:103140000026FCB12046FFF7BFFF022101EB400043
:1031500038803A783046711CCEB22A540322304669
:10316000711CCEB22A540AE014F8012B3046711CAF
:10317000CEB22A5400223046711CCEB22A54207896
:103180000028F1D1BDE8F0810146002031B10129CC
:1031900006D0022906D0032908D105E0002007E067
:1031A000022005E0012003E0022001E0022000BF30
:1031B00000BF704770B504460D4616460CB9022094
:1031C00070BDD4F88C0210B10020C4F88C020DB18F
:1031D000C4F88852012084F874022670204600F05A
:1031E00015F90020ECE72DE9F04104460D460026D4
:1031F00000272946D4F89802FDF7AEFB0646304674
:10320000FFF7C2FF07463846BDE8F0812DE9F041DF
:1032100004460D46002600272946D4F89802FDF7FB
:1032200066FB06463046FFF7AFFF07463846BDE867
:10323000F0812DE9F04104460E461746002E64D178
:1032400004F11405D4F86C02022848D1D5E9030131
:10325000884210D9D5E90301401AE860A88982B2F2
:1032600039462046FFF77CFD00231A4619462046C2
:1032700000F03AF93EE02969A868B0FBF1F201FBE1
:103280001200B8B92969A868884213D3A868D4F88D
:10329000701288420ED2002211462046FFF760FDD0
:1032A0000020C4F8700200231A461946204600F098
:1032B0001BF91FE0D4F88C02C06840B194F8740286
:1032C000032804D1D4F88C02C168204688478021A5
:1032D000204600F0B5F92046FFF76EFD0AE0D4F86D
:1032E0006C02042802D0D4F86C0218B98021204660
:1032F00000F0A6F994F87802012818D1204600F0D1
:10330000FFF9002084F8780211E0D4F88C024069BB
:1033100050B194F87402032806D1D4F88C023146D7
:1033200042692046904702E00220BDE8F08100207B
:10333000FBE72DE9F04104460E461746BEBB04F5F7
:10334000A075D4F86C02032825D1D5E90301884281
:1033500010D9D5E90301401AE860D5E90301884294
:1033600001D2E86800E0286982B239462046FFF7BA
:10337000EBFC2FE0D4F88C02006940B194F87402A1
:10338000032804D1D4F88C020169204688472046DE
:10339000FFF730FD1EE0D4F86C0205281AD100209A
:1033A000C4F86C020021204600F04AF912E0FFE761
:1033B000D4F88C02806950B194F87402032806D1C5
:1033C000D4F88C02314682692046904702E0022000
:1033D000BDE8F0810020FBE701460020704710B5F2
:1033E0000446012084F874022179D4F88C024268E2
:1033F00020469047002010BD70B504460D46294672
:10340000D4F89802FDF7E6FA70BD000010B5044646
:10341000207800282AD11648C0F80444C4F898023D
:103420004FF0A04012490860042048600221104873
:10343000C16000210161022181610021C16101623D
:103440004162C1620163FDF765FE08B1FCF7F1FF5F
:1034500080210748FDF7F1F9402200210448FDF7DB
:10346000F1F9802201210248FDF7ECF9002010BD9E
:10347000F016002010B50246D2F8983201F0800014
:10348000802809D101F07F00C0EBC00403F13C00AB
:1034900000EB8400807810BD01F07F00C0EBC00419
:1034A00003F5FE7000EB84008078F4E7024600200C
:1034B00070470246002070472DE9F04704460F464A
:1034C00015461E464FF00008C1462B463246394687
:1034D000D4F89802FDF789FA80464046FFF754FE7B
:1034E00081464846BDE8F0872DE9F04704460D4681
:1034F00016461F464FF00008C1463B463246294655
:10350000D4F89802FDF7B7FA80464046FFF73CFE34
:1035100081464846BDE8F08710B5044640230022A6
:1035200011462046FFF7C8FF01214FF4A270015158
:1035300040214FF4A87001514023002280212046F1
:10354000FFF7BAFF0121A16140216162012084F8E7
:1035500074020020C4F86C026060C4F87C02D4F8E5
:10356000900228B12179D4F88C0242682046904715
:10357000002010BD014691F8750281F87402002008
:10358000704710B5044694F87402032808D1D4F8A3
:103590008C02C06920B1D4F88C02C16920468847EA
:1035A000002010BD02461174002070472DE9F04143
:1035B00004460D46002600272946D4F89802FDF758
:1035C000D1FE06463046FFF7DFFD07463846BDE828
:1035D000F08170B504460D46294604F5207000F0D0
:1035E00073F80120C4F86C0240F28620005BC4F836
:1035F000700294F8800200F01F0020B1012808D06A
:10360000022812D10BE004F52071204600F041F9A8
:1036100013E004F52071204600F0A8FA0DE004F54F
:103620002071204600F086F907E094F8800200F04F
:103630008001204600F004F800BF00BF002070BDEC
:103640002DE9F04104460D46002600272946D4F80E
:103650009802FDF73CFA06463046FFF795FD07460F
:103660003846BDE8F08170B5044600250026D4F840
:103670009802FDF79BFE05462846FFF785FD0646A6
:10368000304670BD014691F8740281F8750204203D
:1036900081F87402002070472DE9F04704460D467A
:1036A00016461F464FF00008C1463B4632462946A3
:1036B000D4F89802FDF750FA80464046FFF764FDC3
:1036C00081464846BDE8F0870A7802704A78427021
:1036D0008B78CA7803EB022242800B794A7903EB9C
:1036E000022282808B79CA7903EB0222C280704762
:1036F0000246002011B1C2F88C1200E0022070478F
:1037000001460020704770B504460D46A88810BBDE
:10371000E88800BB688880281DD2A87800F07F0662
:1037200094F87402032804D129462046FFF724FBAD
:1037300015E084F8766231462046FFF737FF2046D1
:10374000FFF758FB1EB1022084F8740207E0012045
:1037500084F8740203E029462046FFF70DFB70BD94
:1037600070B504460D460226D4F88C0238B1D4F860
:103770008C02294602682046904700B90026304650
:1037800070BD000070B504460D46A8783649087033
:1037900008460078012804D929462046FFF7ECFAAC
:1037A00060E094F87402022802D003284FD11CE094
:1037B0002D480078A8B12C4800786060032084F878
:1037C0007402294801782046FFF7CAFF022804D175
:1037D00029462046FFF7D0FA70BD2046FFF70AFBC6
:1037E00002E02046FFF706FB3BE01F48007870B977
:1037F000022084F874021C48007860601A4801783E
:103800002046FFF777FA2046FFF7F4FA1EE0164944
:1038100009786068884216D021792046FFF76AFA55
:10382000114800786060104801782046FFF798FF43
:10383000022804D129462046FFF79EFACCE720460D
:10384000FFF7D8FA02E02046FFF7D4FA09E029464C
:103850002046FFF791FA044801782046FFF74AFA1C
:1038600000BF00BF00BFB7E79000002070B505465D
:103870000C466088012804D1C5F87C022846FFF771
:10388000B9FA70BD10B504462046FFF7ECFE0020E3
:1038900010BD70B505460C460026207800F060008B
:1038A00060B1202802D040283CD100E000BFD5F80C
:1038B0008C02214682682846904738E060780A28C2
:1038C00029D2DFE800F01923281E280A0528140F42
:1038D00021462846FFF74FFB22E021462846FFF706
:1038E00012FF1DE021462846FFF74CFF18E0214655
:1038F0002846FFF715FB13E021462846FFF7EEFBAD
:103900000EE021462846FFF7B1FF09E02146284690
:10391000FFF7FBF904E021462846FFF72DFA00BF28
:1039200000BF04E021462846FFF726FA00BF00BF8B
:10393000304670BD2DE9F04105460E464FF00008B7
:103940003479307800F0600060B1202802D040283F
:1039500071D100E000BFD5F88C023146826828465C
:10396000904700E1307800F06000202809D1D5F8B8
:103970008C02314682682846904780464046BDE822
:10398000F081707800285ED001282FD0032876D1EE
:1039900095F87402022802D0032820D110E054B117
:1039A000802C08D021462846FFF74AFE8021284671
:1039B000FFF746FE03E031462846FFF7DDF913E046
:1039C000708840B93CB1802C05D0F08818B92146E8
:1039D0002846FFF735FE2846FFF70CFA04E031468B
:1039E0002846FFF7C9F900BF00BFB5E095F874029B
:1039F000022802D003281FD110E054B1802C08D037
:103A000021462846FFF71CFE80212846FFF718FEB6
:103A100003E031462846FFF7AFF912E0708848B955
:103A200004F07F0018B121462846FFF7DCFB28464A
:103A3000FFF7E0F905E091E031462846FFF79CF9F1
:103A400000BF00BF88E095F87402022802D0032866
:103A500076D126E034B1802C04D031462846FFF7D9
:103A60008BF972E004F08000802809D104F07F0017
:103A700000EB800105F1140000EB810008E066E036
:103A800004F07F0000EB800105F5A07000EB8100E1
:103A9000074600203860022239462846FFF799F988
:103AA00053E004F0800080280ED104F00F0000EBFA
:103AB000800105F1140000EB8100406898B931469F
:103AC0002846FFF759F940E004F00F0000EB8001B1
:103AD00005F5A07000EB8100406820B9314628460A
:103AE000FFF74AF931E004F08000802808D104F0A3
:103AF0007F0000EB800105F1140000EB810007E07E
:103B000004F07F0000EB800105F5A07000EB810060
:103B100007460CB1802C02D10020386009E0214614
:103B20002846FFF7A7FC10B10120386001E0002013
:103B30003860022239462846FFF74BF905E0FFE7D7
:103B400031462846FFF718F900BF00BF04E03146B0
:103B50002846FFF711F900BF00BF04E031462846B0
:103B6000FFF70AF900BF00BF404608E770B50546F9
:103B70000C460026207800F0600030B1202802D0EA
:103B800040282AD100E000BF00BF95F87402012848
:103B900004D0022803D0032818D101E000BF00BFE1
:103BA000207901280DD8D5F88C0221468268284654
:103BB00090470646E08840B93EB92846FFF71AF913
:103BC00003E021462846FFF7D7F804E021462846BF
:103BD000FFF7D2F800BF00BF04E021462846FFF7F8
:103BE000CBF800BF00BF002070BD000070B50446D8
:103BF0000B4622461978587801282CD140F61C0033
:103C000080581D7805F00F060125B540ADB2284358
:103C100040F61C05A85002F5106000EB411000684A
:103C200000F40040F0BB1889C0F30A00DD7840EAD8
:103C3000854040EA815040F0805040F4004002F559
:103C4000106505EB41152D68284302F5106505EB5D
:103C5000411528602DE040F61C0080581D7805F0C5
:103C60000F060125B540144E06EA0545284340F6E7
:103C70001C05A85002F5306000EB4110006800F40C
:103C8000004078B91889C0F30A00DD7840EA854021
:103C900040F0805040F4004002F5306505EB4115DE
:103CA0002D6800E005E0284302F5306505EB41157D
:103CB0002860002070BD00000000FFFF0246114692
:103CC0004FF410604058C30ADB024FF410604350B9
:103CD00040F60800405800F00600042807D14FF4D1
:103CE0001060405840F003034FF41060435040F61A
:103CF0000400405840F4807340F604004350002014
:103D0000704700000FB470B504460A98012817D117
:103D1000A06B20F48030A063E0681A490840E0609E
:103D2000E06820F44010E0601198012803D1E068B9
:103D300040F48010E060204600F026F8054612E0CE
:103D4000E06840F04000E060204600F01DF80546C5
:103D50000E9820B9A06B40F48030A06303E0A06B04
:103D600020F48030A0630898012807D1A06840F0B3
:103D70000600A060A06840F02000A060284670BC4B
:103D80005DF814FBBFFFBDFF0146002200BF501CC1
:103D900002460F4B984201D903207047086900F092
:103DA00000400028F3D00022086940F001000861BB
:103DB00000BF501C0246064B984201D90320ECE795
:103DC000086900F001000028F3D100BFE5E700001A
:103DD000400D030070B504460B4621461A7858780A
:103DE000012826D140F63C0040581D7805F00F060A
:103DF0000125B540ADB2A84340F63C05685040F6F9
:103E00001C0040581D7805F00F060125B540ADB2E5
:103E1000A84340F61C05685001F5106000EB421005
:103E200000681A4D284001F5106505EB4215286021
:103E300029E040F63C0040581D7805F00F060125AA
:103E4000B540134E06EA0545A84340F63C056850C8
:103E500040F61C0040581D7805F00F060125B540BE
:103E60000B4E06EA0545A84340F61C05685001F5CF
:103E7000306000EB42100068064D284001F53065C7
:103E800005EB42152860002070BD0000007833EC7F
:103E90000000FFFF0078F3EF70B50446254640F6BA
:103EA0000400405920F0020140F604004151032073
:103EB000FCF7DAFA002070BD70B50446254640F6DE
:103EC0000400405940F0020140F604004151032033
:103ED000FCF7CAFA002070BD0FB4F0B50546002704
:103EE0002E46002405E0002105F5827040F82410DC
:103EF000641C0F2CF7D3109860B9A86B40F4001025
:103F0000A863A86B20F40020A863A86B20F480208D
:103F1000A86307E0286820F400102860A86B40F42C
:103F20000020A8630020C6F8000ED6F80008C6F8E6
:103F300000080B9801280BD1089820B900212846C9
:103F400000F0F4FC08E00121284600F0EFFC03E05B
:103F50000321284600F0EAFC1021284600F036FC38
:103F600000B10127284600F01BFC00B10127002109
:103F70004FF401608151001D815140F61C008151B8
:103F800000242EE006F5106000EB4410006800F0FD
:103F90000040B0F1004F10D13CB94FF0006106F580
:103FA000106000EB441001600DE04FF0904106F509
:103FB000106000EB4410016005E0002106F5106080
:103FC00000EB44100160002106F5106000EB441086
:103FD00001614FF67F3106F5106000EB44108160FF
:103FE000641C0698A042CDD800242EE006F530606F
:103FF00000EB4410006800F00040B0F1004F10D119
:104000003CB94FF0006106F5306000EB44100160F0
:104010000DE04FF0904106F5306000EB4410016078
:1040200005E0002106F5306000EB4410016000213E
:1040300006F5306000EB441001614FF67F3106F564
:10404000306000EB44108160641C0698A042CDD81B
:104050004FF40160805920F480714FF40160815168
:104060000998012809D115494FF4036081518059FD
:10407000134908434FF4036188510020A8616FF091
:1040800080406861099818B9A86940F01000A861DB
:10409000A8690C490843A8610C9818B1A86940F0B8
:1040A0000800A8611098012803D1A86906490843AF
:1040B000A8613846F0BC5DF814FB000000018000E8
:1040C0000300010000383C8004000040014688687D
:1040D00020F001008860002070470000F0B5054620
:1040E0000B4614462A4619785878012875D1586924
:1040F00020BB02F5106000EB411000696C4E3040AF
:1041000002F5106606EB4116306102F5106000EB17
:104110004110006940F4002602F5106000EB4110E8
:10412000066102F5106000EB41100069C60CF60450
:1041300002F5106000EB4110066137E002F51060F7
:1041400000EB41100069C60CF60402F5106000EBAC
:104150004110066102F5106000EB41100069544EF9
:10416000304002F5106606EB411630619E685869D2
:10417000B04201D99868586102F5106000EB411017
:10418000006940F4002602F5106000EB4110066162
:1041900002F5106000EB411000695E69C6F312067B
:1041A000304302F5106606EB41163061012C15D143
:1041B000186928B102F5106000EB41101E694661D4
:1041C00002F5106000EB4110006840F0044602F573
:1041D000106000EB4110066068E01BE002F5106023
:1041E00000EB4110006840F0044602F5106000EB5F
:1041F000411006605869002858D040F634008058B5
:104200001E7806F00F070126BE40304340F6340604
:10421000B0504BE002F5306000EB41100069C60C75
:10422000F60402F5306000EB4110066102F53060E3
:1042300000EB411000691E4E304002F5306606EB7F
:1042400041163061586908B19868586102F53060CC
:1042500000EB4110006940F4002602F5306000EBED
:104260004110066102F5306000EB411000699E6864
:10427000C6F31206304302F5306606EB4116306194
:10428000012C07D1D86828B102F5306000EB41104D
:10429000DE68466102F5306000EB4110006840F0D6
:1042A000044602F5306000EB411006600020F0BDCE
:1042B000FFFF07E070B503460C4619461D6C184811
:1042C000854209D94FF43060405800F00040B0F109
:1042D000004F01D1002070BD0026C1F8106BD1F84D
:1042E000100B40F40026C1F8106BD1F8100B40F011
:1042F0001806C1F8106BD1F8100B40F0C046C1F899
:10430000106B012C09D1C1F8142B4FF430604058C8
:1043100040F080264FF4306046500020DBE700007C
:104320000A30544F30B504460B4622461978587867
:1043300001281ED102F5106000EB4110006820F446
:10434000001502F5106000EB41100560D8780328D5
:1043500002D0D87802282AD102F5106000EB411073
:10436000006840F0805502F5106000EB41100560D8
:104370001DE002F5306000EB4110006820F40015EC
:1043800002F5306000EB41100560D878032802D0B8
:10439000D87802280BD102F5306000EB411000689C
:1043A00040F0805502F5306000EB411005600020C0
:1043B00030BD30B504460B4622461978587801289E
:1043C00021D102F5106000EB4110006800F00040C0
:1043D00060B959B102F5106000EB4110006820F09F
:1043E000804502F5106000EB4110056002F5106099
:1043F00000EB4110006840F4001502F5106000EB7E
:104400004110056020E002F5306000EB41100068CB
:1044100000F0004060B959B102F5306000EB411086
:10442000006820F0804502F5306000EB4110056027
:1044300002F5306000EB4110006840F4001502F511
:10444000306000EB41100560002030BD2DE9F843DD
:1044500081460E4617464D463478707801287DD146
:10446000706920BB05F5106000EB44100069C74976
:10447000084005F5106101EB4411086105F5106075
:1044800000EB4410006940F4002105F5106000EBDA
:104490004410016105F5106000EB44100069C10C87
:1044A000C90405F5106000EB4410016155E005F505
:1044B000106000EB44100069C10CC90405F51060E0
:1044C00000EB4410016105F5106000EB4410006939
:1044D000AE49084005F5106101EB44110861B1686F
:1044E00070690844401EB0FBF1F0A849C94301EAD5
:1044F000C04005F5106101EB44110969084305F559
:10450000106101EB4411086105F5106000EB4410E7
:1045100000697169C1F31201084305F5106101EBEF
:1045200044110861F078012817D105F5106000EBFF
:104530004410006920F0C04105F5106000EB441004
:10454000016105F5106000EB4410006940F0005176
:1045500005F5106000EB4410016100E07FE0012FE1
:1045600036D1306928B105F5106000EB441031698F
:104570004161F07801281ED140F60800405900F44E
:10458000807060B905F5106000EB4410006840F0E1
:10459000005105F5106000EB441001600BE005F5DB
:1045A000106000EB4410006840F0805105F5106089
:1045B00000EB4410016005F5106000EB441000684A
:1045C00040F0044105F5106000EB44100160DAE0B2
:1045D00005F5106000EB4410006840F0044105F55B
:1045E000106000EB44100160F07801280FD0706972
:1045F0000028ECD040F634004059317801F00F0229
:1046000001219140084340F634014851BBE040F697
:104610000800405900F4807060B905F5106000EBA7
:104620004410006840F0005105F5106000EB4410A4
:1046300001600BE005F5106000EB4410006840F0ED
:10464000805105F5106000EB441001600097B08ABE
:1046500083B232784846F16800F0E6F993E005F558
:10466000306000EB44100069C10CC90405F53060EE
:1046700000EB4410016105F5306000EB4410006967
:104680004249084005F5306101EB44110861706949
:10469000D0B905F5306000EB44100069B168C1F392
:1046A0001201084305F5306101EB4411086105F57D
:1046B000306000EB4410006940F4002105F53060E3
:1046C00000EB4410016126E0B16870690844401EA7
:1046D000B0FBF1F01FFA80F805F5306000EB4410F4
:1046E00000692A49C94301EAC841084305F5306118
:1046F00001EB4411086105F5306000EB44100069DE
:10470000B16801FB08F1C1F31201084305F53061FE
:1047100001EB44110861012F07D1F06828B105F5BC
:10472000306000EB4410F1684161F07801281ED13F
:1047300040F60800405900F4807060B905F530601B
:1047400000EB4410006840F0005105F5306000EBCC
:10475000441001600BE005F5306000EB4410006888
:1047600040F0805105F5306000EB4410016005F524
:10477000306000EB4410006840F0044105F5306003
:1047800000EB441001600020BDE8F883FFFF07E064
:104790000146886840F001008860002070470000F2
:1047A000014600221020086100BF501C0246064B43
:1047B000984201D903207047086900F010001028C2
:1047C000F3D00020F7E70000400D030010B50246CB
:1047D0000023202040EA8110106100BF581C0346CE
:1047E000054CA04201D9032010BD106900F0200043
:1047F0002028F3D00020F7E7400D030010B5014654
:104800000B4640F60804E45804F006020AB90020FA
:1048100006E0022A01D0062A01D1022000E00F2082
:1048200010BD0146486900F00100704701460B4683
:1048300040F61800C258001DC058024090B27047A0
:1048400001460B4640F61800C258001DC0580240F1
:10485000100C704770B5024613464FF40166F458C9
:1048600040F63406F55801F00F0625FA06F606F074
:10487000010644EAC61403F5106606EB4116B66855
:1048800006EA040070BD10B50246134603F5306415
:1048900004EB4114A06840F61404E458204010BD15
:1048A000014648698A6910407047F0B503461E46C4
:1048B0000846D71CBD08002405E04FF48057BF59B7
:1048C0000760001D641CAC42F7D3F0BD70B5044610
:1048D0000D46E06820F0C040E060012D04D1E068A2
:1048E00040F00050E06007E025B9E06840F080400B
:1048F000E06001E0012070BD3220FBF7B5FD002033
:10490000F9E710B502460B461146D1F8000820F42D
:10491000FE60C1F80008D1F800084FF4FE6404EA14
:1049200003142043C1F80008002010BD02461346BE
:10493000D3F800080843C3F80008002070470000BF
:1049400030B503461446022C49D12D48814204D388
:104950002C48814201D20F2245E02A48814204D3EB
:104960002948814201D20E223DE02748814204D3EA
:104970002648814201D20D2235E02448814204D3E9
:104980002348814201D20C222DE02148814204D3E8
:104990002048814201D20B2225E01E48814204D3E7
:1049A0001D48814201D20A221DE01B48814204D3E6
:1049B0001A48814201D2092215E01848814204D3E5
:1049C0001748814201D208220DE01548814204D3E4
:1049D0001448814201D2072205E0062203E00CB907
:1049E000092200E00922D86820F47050D860D86805
:1049F0004FF4705505EA82252843D860002030BD69
:104A0000C0ACD800C0E1E4000024F40080730601CB
:104A1000A0491A01002D310140A44C0100366E015D
:104A200020ABA6010048E8012DE9F04304460D46FD
:104A3000DDF81CC0A0462E46BCF1000F0FD1D81CDB
:104A40008708002109E008F5805000EB0230D6F815
:104A50000090C0F80090361D491CB942F3D30020E5
:104A6000BDE8F08300BFFEE70FB4084B10B504A902
:104A700002AA039800F038F8044602A9002000F0CA
:104A8000D4F9204610BC5DF814FB00002B4E000842
:104A900002480068C0F30220704700000CED00E0FF
:104AA00010B5002804DB0A07130E054A135406E06C
:104AB0000A07140E034A00F00F031B1FD45410BD45
:104AC00000E400E018ED00E002E008C8121F08C191
:104AD000002AFAD170477047002001E001C1121F7F
:104AE000002AFBD1704700002DE9FF4F8BB08846AC
:104AF0000546002606E025280BD0DDE90D1290477B
:104B00006D1C761C28780028F5D10FB03046BDE822
:104B1000F08F0024A146A2460122AE4900E00443E2
:104B200015F8013F203B02FA03F00842F7D128783C
:104B30002A2810D06FF02F022878A0F1300109291F
:104B400015D809EB890102EB410144F0020400EBA6
:104B500001096D1CF0E758F8041B5FEA010903D551
:104B600044F40054C9F1000944F002046D1C287893
:104B70002E2817D115F8010F44F004042A280ED06E
:104B80006FF02F022878A0F1300109290AD80AEB2A
:104B90008A0102EB410100EB010A6D1CF2E758F8B3
:104BA00004AB6D1C28786C280FD006DC4C2817D07D
:104BB00068280DD06A2814D104E0742810D07A280F
:104BC0000FD10DE044F400140AE044F4801401E035
:104BD00044F440146978814202D104F580146D1CBC
:104BE0006D1C2878692865D006DC00288DD06328E4
:104BF00027D0642806D15DE06E2808D073282AD01B
:104C0000752877D0DDE90D129047761CE0E0C4F3FB
:104C10000250022809D003280DD0D8F8001004282B
:104C20000DD00E6008F10408D2E0D8F80010F21799
:104C3000C1E90062F6E7D8F800100E80F2E70E70C6
:104C4000F0E718F8041B8DF8001000208DF8010023
:104C5000EB46012003E058F804BB4FF0FF3061073A
:104C60004FF0000701D40AE07F1C57450DDA874258
:104C7000FADB1BF807100029F6D106E07F1C8742FB
:104C8000FCDB1BF807100029F8D1DDE90D23A9EBA7
:104C900007008146214600F0B1F83044C61904E00F
:104CA000DDE90D121BF8010B90477F1EF8D221465B
:104CB000484688E058F8040BC4F302514FF00A0B41
:104CC000032900D100B2042900D140B2002802DA41
:104CD00040422D2102E0210505D52B218DF824101D
:104CE000012104E006E0E10710D02021F6E708AF3B
:104CF000089113E058F8040BC4F302514FF00A0B6B
:104D0000032900D180B2042900D1C0B20021EEE70E
:104D10005946FBF7B2FA303107F8011D0028F7D1E8
:104D2000ADEB070000F1200B600702D524F48034BE
:104D300001E04FF0010ADA4502DDAAEB0B0000E0CA
:104D40000020824600EB0B0108980144A9EB01000A
:104D50000A90E00306D4DDE90D2321460A9800F00D
:104D60004DF806444FF0000908E009A911F80900C0
:104D7000DDE90D12904709F10109761C0899894572
:104D8000F3DBE0030CD5DDE90D2321460A9800F0A2
:104D900035F8064404E0DDE90D1230209047761C1A
:104DA000BAF10001AAF1010AF5DC05E0DDE90D1216
:104DB00017F8010B9047761CBBF10001ABF1010B1A
:104DC000F4DC0A982146DDE90D2300F005F80644DD
:104DD0006D1C97E6092801002DE9F04104460025E5
:104DE0001E461746880404D405E039462020B04703
:104DF0006D1C641EF9D52846BDE8F0812DE9F0410F
:104E0000044600251E469046C80301D5302700E021
:104E10002027880404D505E041463846B0476D1C7C
:104E2000641EF9D52846BDE8F0810A68531C0B6062
:104E30001070704710B5002821D0114B0022001FC0
:104E4000196803E0814203D80A4649680029F9D16C
:104E500052B11368841A9C4204D10068184410604F
:104E6000104602E0506000E0186039B102680B1A89
:104E7000934203D10B681A4402604968416010BD37
:104E8000A401002010B501210348FBF7EBFB08B992
:104E9000002010BD0120FCE70000024010B50446D0
:104EA00020780F2845D2DFE800F0080C1014181CF9
:104EB0002024282C3034383C4000204600F007F9EC
:104EC0003AE0204600F01CF936E0204600F00AF9EE
:104ED00032E0204600F028F92EE0204600F094F958
:104EE0002AE0204600F07DF826E0204600F078F920
:104EF00022E0204600F08AF81EE0204600F0BAF8D2
:104F00001AE0204600F0CEF816E0204600F0BEF889
:104F100012E0204600F01DF90EE0204600F042F8B5
:104F20000AE0204600F030F906E0204600F01FF9C4
:104F300002E02078207000BF00BF10BD70B50125D1
:104F4000002406E0044901EB0410FFF7A7FF601CF2
:104F5000C4B2AC42F6DB70BD00000020104991F8ED
:104F600021100F4A92F82020914201D1002016E032
:104F70000B4991F8202091F82010491C084B83F828
:104F80002010194631F812000A4692F82010CA176C
:104F900001EB12721211A1EB021283F8202070476C
:104FA000AC01002070B504466088401C6080E06859
:104FB00080470646012E01D10D202070608861894E
:104FC000884200DA70BD608900B9FBE7607805218E
:104FD00001EB0025284600F045F90020608000BF65
:104FE000F0E770B504466088401C6080E068804748
:104FF000054660882189884205DA35B90720207086
:105000000020608001E00620207070BD70B504466D
:10501000174800884FF6FF71884204D16088144910
:105020000880002060806088401C60806088E18883
:10503000884200DA70BDE068804705465DB9607857
:10504000072101EB0026304600F00CF90820207003
:105050000020608006E005202070608804490988EF
:10506000084460804FF6FF700149088000BFE1E707
:105070001200002070B50446E06880470546012D07
:1050800003D1092020700020608070BD70B50446F7
:105090006078042101EB0025284600F0E3F80020A9
:1050A000207070BD10B504466188491C618061881C
:1050B000E288914200DA10BDE1688847012802D1F8
:1050C0000A21217001E00821217000BFF3E770B5CB
:1050D0000446E068804705461DB901202070002085
:1050E000608070BD70B504466078012101EB002539
:1050F000284600F0B7F8032020700020608070BDC3
:1051000010B504466188491C61806188E28891423B
:1051100000DA10BDE168884710B90221217001E072
:105120000021217000BFF4E770B504466088401C80
:105130006080E068804705466088A188884204DA7C
:10514000012D01D10420207070BD0B20207000BF04
:10515000FAE770B504466078062101EB0025284681
:1051600000F080F80C2020700020608070BD70B5C9
:1051700004466078032101EB0025284600F072F810
:105180000020207070BD000010B504461349098846
:105190004FF6FF72914204D16188104A11800021BC
:1051A00061806188491C61806188E288914200DAEF
:1051B00010BDE1688847012802D10E21217006E068
:1051C0000C2121706188054A1288114461804FF6D4
:1051D000FF71024A118000BFEAE7000014000020BE
:1051E00070B504466078052101EB0025284600F0E3
:1051F00039F86078022101EB0025284600F032F8EA
:105200000020207070BD000010B5044614490988C4
:105210004FF6FF72914204D16188114A118000213A
:1052200061806188491C61806188E288914200DA6E
:1052300010BDE1688847012804D1052121700021B3
:10524000618006E0032121706188054A12881144BB
:1052500061804FF6FF71024A118000BFE8E700004D
:10526000100000200146184890F8212090F82100F5
:10527000401C154B83F82100184620F812100246F6
:1052800092F82100C21700EB12721211A0EB021269
:1052900083F82120184690F821001A4692F8202021
:1052A000904210D1184690F82000401C1A4682F80F
:1052B000200092F82000C21700EB12721211A0EB2E
:1052C000021283F820207047AC0100204FF0010843
:1052D000FBF7E8F9FDF78AFAFCF776FFFCF7D8FF51
:1052E000FDF776F8BEE0FBF7CBF9001B47D0FBF7E4
:1052F000C7F90446B8F1010F41D15B48007868B99D
:105300005A480088401C5949088008460088B0F572
:10531000C86F0EDB0120544908700AE0534800882A
:10532000401E524908800846008810B900204E49A6
:1053300008704E480088502190FBF1F04C490870ED
:105340004C480078142803DD00204A49087004E026
:1053500048480078401C474908704648007844494E
:105360000978884205DB012251034348FBF782F9A3
:1053700005E000224FF400513F48FBF77BF9FBF7B3
:105380007FF9401BB0F57A7F17D3FBF779F9054613
:105390003A48007801280DD100203849087038A11A
:1053A0003F48FFF761FB1FFA80F949463C48FBF78D
:1053B00023F802E03A48FDF7B7F9FBF761F9801BE3
:1053C00004D0FBF75DF90646FFF7B8FDFBF758F987
:1053D000C01B0A2846D3FBF753F90746FFF7BEFD6B
:1053E0003049088008460088B0F5817F11D14FF020
:1053F0000008012251032048FBF73CF92AA1284864
:10540000FFF732FB1FFA80F949462548FAF7F4FF07
:1054100028E024480088B0F5827F12D14FF00008C0
:1054200000224FF400511448FBF724F924A11C4832
:10543000FFF71AFB1FFA80F949461948FAF7DCFF13
:1054400010E018480088B0F5837F0BD14FF00108B9
:1054500021A11348FFF708FB1FFA80F949461048BD
:10546000FAF7CAFF3FE700001E0000201C000020E2
:105470001A0000201F000020000802401600002033
:105480000D0A53544D33324634313143452057656C
:1054900041637420436F7265426F6172640D0A004C
:1054A000CE010020180000200D0A53686F7274208E
:1054B000507265737320B6CCB0B40D0A00000000C2
:1054C0000D0A446F75626C6520507265737320CB52
:1054D000ABBBF70D0A0000000D0A4C6F6E67205041
:1054E0007265737320B3A4B0B40D0A00F0B50B302D
:1054F000154D20F007010024144A0FE003688B4289
:105500000BD38B4205D95E1A43184768C3E900677D
:1055100000E04368136002C004E0021D1068002828
:10552000ECD12046002802D1286808B10020F0BD47
:10553000064A07481060074A121A22F00702C0E91B
:10554000002401202860D7E7A8010020A401002042
:10555000FC1A0020F82200200000000000000000DB
:105560000102030406070809000000000102030409
:105570009055000800000020AC010000080300085E
:1055800064560008AC0100204C250000D84A0008F1
:1055900011220114DC051412C815E803854E3B08DE
:1055A000FF01E132101927211324F413452E1B08A3
:1055B0008D041A9D041AC90413092F1B0811081A17
:1055C0005504131201140202021640830440571DB1
:1055D0000201020335071A040309041A0313B9036D
:1055E0001B08B5041A65041ADD0441130A063202C9
:1055F0002A407413A12A1408E1294C08C32B1C1A51
:105600002F101A31101AAD04C11A81181A71041A18
:1056100091041A61041C09024383111DC03209045C
:10562000BD1A020B130524161001052401100901EF
:1056300004240202052406170107058203081C1032
:105640000904B9320A1D070501027B2C07058107F1
:10565000110937442A40072A8107112B0907440AF8
:105660003B044481FFFFFFFFFFFFFFFFFFFFFFFF42
:10567000FFFFFFFFFFFFFFFFFFFFFFFFFFFFFFFF3A
:10568000FFFFFFFFFFFFFFFFFFFFFFFFFFFFFFFF2A
:10569000FFFFFFFFFFFFFFFFFFFFFFFFFFFFFFFF1A
:1056A000FFFFFFFFFFFFFFFFFFFFFFFFFFFFFFFF0A
:020000040807EB
:00000001FF
